{
  "contractName": "Voting",
  "abi": [
    {
      "anonymous": false,
      "inputs": [
        {
          "indexed": true,
          "internalType": "address",
          "name": "previousOwner",
          "type": "address"
        },
        {
          "indexed": true,
          "internalType": "address",
          "name": "newOwner",
          "type": "address"
        }
      ],
      "name": "OwnershipTransferred",
      "type": "event"
    },
    {
      "anonymous": false,
      "inputs": [
        {
          "indexed": false,
          "internalType": "uint256",
          "name": "proposalId",
          "type": "uint256"
        }
      ],
      "name": "ProposalRegistered",
      "type": "event"
    },
    {
      "anonymous": false,
      "inputs": [],
      "name": "ProposalsRegistrationEnded",
      "type": "event"
    },
    {
      "anonymous": false,
      "inputs": [],
      "name": "ProposalsRegistrationStarted",
      "type": "event"
    },
    {
      "anonymous": false,
      "inputs": [
        {
          "indexed": false,
          "internalType": "address",
          "name": "voter",
          "type": "address"
        },
        {
          "indexed": false,
          "internalType": "uint256",
          "name": "proposalId",
          "type": "uint256"
        }
      ],
      "name": "Voted",
      "type": "event"
    },
    {
      "anonymous": false,
      "inputs": [
        {
          "indexed": false,
          "internalType": "address",
          "name": "voterAddress",
          "type": "address"
        }
      ],
      "name": "VoterRegistered",
      "type": "event"
    },
    {
      "anonymous": false,
      "inputs": [],
      "name": "VotesTallied",
      "type": "event"
    },
    {
      "anonymous": false,
      "inputs": [],
      "name": "VotingSessionEnded",
      "type": "event"
    },
    {
      "anonymous": false,
      "inputs": [],
      "name": "VotingSessionStarted",
      "type": "event"
    },
    {
      "anonymous": false,
      "inputs": [
        {
          "indexed": false,
          "internalType": "enum Voting.WorkflowStatus",
          "name": "previousStatus",
          "type": "uint8"
        },
        {
          "indexed": false,
          "internalType": "enum Voting.WorkflowStatus",
          "name": "newStatus",
          "type": "uint8"
        }
      ],
      "name": "WorkflowStatusChange",
      "type": "event"
    },
    {
      "inputs": [
        {
          "internalType": "uint256",
          "name": "",
          "type": "uint256"
        }
      ],
      "name": "addresses",
      "outputs": [
        {
          "internalType": "address",
          "name": "",
          "type": "address"
        }
      ],
      "stateMutability": "view",
      "type": "function",
      "constant": true
    },
    {
      "inputs": [],
      "name": "currState",
      "outputs": [
        {
          "internalType": "enum Voting.WorkflowStatus",
          "name": "",
          "type": "uint8"
        }
      ],
      "stateMutability": "view",
      "type": "function",
      "constant": true
    },
    {
      "inputs": [],
      "name": "owner",
      "outputs": [
        {
          "internalType": "address",
          "name": "",
          "type": "address"
        }
      ],
      "stateMutability": "view",
      "type": "function",
      "constant": true
    },
    {
      "inputs": [],
      "name": "proposalId",
      "outputs": [
        {
          "internalType": "uint256",
          "name": "",
          "type": "uint256"
        }
      ],
      "stateMutability": "view",
      "type": "function",
      "constant": true
    },
    {
      "inputs": [
        {
          "internalType": "uint256",
          "name": "",
          "type": "uint256"
        }
      ],
      "name": "proposals",
      "outputs": [
        {
          "internalType": "uint256",
          "name": "id",
          "type": "uint256"
        },
        {
          "internalType": "string",
          "name": "description",
          "type": "string"
        },
        {
          "internalType": "uint256",
          "name": "voteCount",
          "type": "uint256"
        }
      ],
      "stateMutability": "view",
      "type": "function",
      "constant": true
    },
    {
      "inputs": [],
      "name": "renounceOwnership",
      "outputs": [],
      "stateMutability": "nonpayable",
      "type": "function"
    },
    {
      "inputs": [
        {
          "internalType": "address",
          "name": "newOwner",
          "type": "address"
        }
      ],
      "name": "transferOwnership",
      "outputs": [],
      "stateMutability": "nonpayable",
      "type": "function"
    },
    {
      "inputs": [
        {
          "internalType": "address",
          "name": "",
          "type": "address"
        }
      ],
      "name": "voters",
      "outputs": [
        {
          "internalType": "bool",
          "name": "isRegistered",
          "type": "bool"
        },
        {
          "internalType": "bool",
          "name": "hasVoted",
          "type": "bool"
        },
        {
          "internalType": "uint256",
          "name": "votedProposalId",
          "type": "uint256"
        }
      ],
      "stateMutability": "view",
      "type": "function",
      "constant": true
    },
    {
      "inputs": [],
      "name": "winningProposalId",
      "outputs": [
        {
          "internalType": "uint256",
          "name": "",
          "type": "uint256"
        }
      ],
      "stateMutability": "view",
      "type": "function",
      "constant": true
    },
    {
      "inputs": [
        {
          "internalType": "address",
          "name": "_address",
          "type": "address"
        }
      ],
      "name": "addVoter",
      "outputs": [],
      "stateMutability": "nonpayable",
      "type": "function"
    },
    {
      "inputs": [
        {
          "internalType": "address",
          "name": "_address",
          "type": "address"
        }
      ],
      "name": "isVoter",
      "outputs": [
        {
          "internalType": "bool",
          "name": "",
          "type": "bool"
        }
      ],
      "stateMutability": "view",
      "type": "function",
      "constant": true
    },
    {
      "inputs": [],
      "name": "startProposalsSession",
      "outputs": [],
      "stateMutability": "nonpayable",
      "type": "function"
    },
    {
      "inputs": [
        {
          "internalType": "string",
          "name": "_description",
          "type": "string"
        }
      ],
      "name": "addProposal",
      "outputs": [],
      "stateMutability": "nonpayable",
      "type": "function"
    },
    {
      "inputs": [],
      "name": "endProposalSession",
      "outputs": [],
      "stateMutability": "nonpayable",
      "type": "function"
    },
    {
      "inputs": [],
      "name": "startVotingSession",
      "outputs": [],
      "stateMutability": "nonpayable",
      "type": "function"
    },
    {
      "inputs": [
        {
          "internalType": "uint8",
          "name": "_proposalId",
          "type": "uint8"
        }
      ],
      "name": "addVote",
      "outputs": [],
      "stateMutability": "nonpayable",
      "type": "function"
    },
    {
      "inputs": [],
      "name": "endVotingSession",
      "outputs": [],
      "stateMutability": "nonpayable",
      "type": "function"
    },
    {
      "inputs": [],
      "name": "getTheWinningProposal",
      "outputs": [
        {
          "internalType": "uint256",
          "name": "",
          "type": "uint256"
        }
      ],
      "stateMutability": "nonpayable",
      "type": "function"
    },
    {
      "inputs": [],
      "name": "showWinnerProposal",
      "outputs": [
        {
          "internalType": "string",
          "name": "",
          "type": "string"
        },
        {
          "internalType": "uint256",
          "name": "",
          "type": "uint256"
        }
      ],
      "stateMutability": "view",
      "type": "function",
      "constant": true
    },
    {
      "inputs": [],
      "name": "getAddresses",
      "outputs": [
        {
          "internalType": "address[]",
          "name": "",
          "type": "address[]"
        }
      ],
      "stateMutability": "view",
      "type": "function",
      "constant": true
    }
  ],
  "bytecode": "0x608060405234801561001057600080fd5b5060006100216100c460201b60201c565b9050806000806101000a81548173ffffffffffffffffffffffffffffffffffffffff021916908373ffffffffffffffffffffffffffffffffffffffff1602179055508073ffffffffffffffffffffffffffffffffffffffff16600073ffffffffffffffffffffffffffffffffffffffff167f8be0079c531659141344cd1fd0a4f28419497f9722a3daafe3b4186f6b6457e060405160405180910390a3506100cc565b600033905090565b6122e8806100db6000396000f3fe608060405234801561001057600080fd5b506004361061012c5760003560e01c8063a7771ee3116100ad578063e47caad311610071578063e47caad314610554578063edf26d9b1461055e578063ee74c678146105b6578063f2fde38b146105c0578063f4ab9adf146106045761012c565b8063a7771ee31461049f578063a7bfab16146104f9578063afe0104314610503578063c64963c51461052c578063e06752c21461054a5761012c565b8063715018a6116100f4578063715018a61461037a5780638da5cb5b1461038457806391f74e37146103b8578063a39fac12146103d6578063a3ec138d146104355761012c565b8063013cf08b146101315780632dfca445146101e65780632fdae3c5146102045780635d814eab146102bf5780635e5c27ee146102f0575b600080fd5b61015d6004803603602081101561014757600080fd5b8101908080359060200190929190505050610648565b6040518084815260200180602001838152602001828103825284818151815260200191508051906020019080838360005b838110156101a957808201518184015260208101905061018e565b50505050905090810190601f1680156101d65780820380516001836020036101000a031916815260200191505b5094505050505060405180910390f35b6101ee610717565b6040518082815260200191505060405180910390f35b6102bd6004803603602081101561021a57600080fd5b810190808035906020019064010000000081111561023757600080fd5b82018360208201111561024957600080fd5b8035906020019184600183028401116401000000008311171561026b57600080fd5b91908080601f016020809104026020016040519081016040528093929190818152602001838380828437600081840152601f19601f82011690508083019250505050505050919291929050505061071d565b005b6102ee600480360360208110156102d557600080fd5b81019080803560ff16906020019092919050505061092e565b005b6102f8610c6e565b6040518080602001838152602001828103825284818151815260200191508051906020019080838360005b8381101561033e578082015181840152602081019050610323565b50505050905090810190601f16801561036b5780820380516001836020036101000a031916815260200191505b50935050505060405180910390f35b610382610d55565b005b61038c610edb565b604051808273ffffffffffffffffffffffffffffffffffffffff16815260200191505060405180910390f35b6103c0610f04565b6040518082815260200191505060405180910390f35b6103de611169565b6040518080602001828103825283818151815260200191508051906020019060200280838360005b83811015610421578082015181840152602081019050610406565b505050509050019250505060405180910390f35b6104776004803603602081101561044b57600080fd5b81019080803573ffffffffffffffffffffffffffffffffffffffff1690602001909291905050506111f7565b6040518084151581526020018315158152602001828152602001935050505060405180910390f35b6104e1600480360360208110156104b557600080fd5b81019080803573ffffffffffffffffffffffffffffffffffffffff16906020019092919050505061123b565b60405180821515815260200191505060405180910390f35b61050161135c565b005b61050b611568565b6040518082600581111561051b57fe5b815260200191505060405180910390f35b61053461157b565b6040518082815260200191505060405180910390f35b610552611581565b005b61055c61178d565b005b61058a6004803603602081101561057457600080fd5b8101908080359060200190929190505050611999565b604051808273ffffffffffffffffffffffffffffffffffffffff16815260200191505060405180910390f35b6105be6119d5565b005b610602600480360360208110156105d657600080fd5b81019080803573ffffffffffffffffffffffffffffffffffffffff169060200190929190505050611bc4565b005b6106466004803603602081101561061a57600080fd5b81019080803573ffffffffffffffffffffffffffffffffffffffff169060200190929190505050611dcf565b005b6003818154811061065557fe5b9060005260206000209060030201600091509050806000015490806001018054600181600116156101000203166002900480601f0160208091040260200160405190810160405280929190818152602001828054600181600116156101000203166002900480156107075780601f106106dc57610100808354040283529160200191610707565b820191906000526020600020905b8154815290600101906020018083116106ea57829003601f168201915b5050505050908060020154905083565b60045481565b6001600581111561072a57fe5b600060149054906101000a900460ff16600581111561074557fe5b1461079b576040517f08c379a00000000000000000000000000000000000000000000000000000000081526004018080602001828103825260418152602001806122126041913960600191505060405180910390fd5b60011515600160003373ffffffffffffffffffffffffffffffffffffffff1673ffffffffffffffffffffffffffffffffffffffff16815260200190815260200160002060000160009054906101000a900460ff16151514610864576040517f08c379a00000000000000000000000000000000000000000000000000000000081526004018080602001828103825260158152602001807f596f75277265206e6f742072656769737465726564000000000000000000000081525060200191505060405180910390fd5b600360405180606001604052806004548152602001838152602001600081525090806001815401808255809150506001900390600052602060002090600302016000909190919091506000820151816000015560208201518160010190805190602001906108d39291906120f3565b506040820151816002015550506004600081548092919060010191905055507f92e393e9b54e2f801d3ea4beb0c5e71a21cc34a5d34b77d0fb8a3aa1650dc18f6004546040518082815260200191505060405180910390a150565b6003600581111561093b57fe5b600060149054906101000a900460ff16600581111561095657fe5b146109ac576040517f08c379a000000000000000000000000000000000000000000000000000000000815260040180806020018281038252602c815260200180612287602c913960400191505060405180910390fd5b60011515600160003373ffffffffffffffffffffffffffffffffffffffff1673ffffffffffffffffffffffffffffffffffffffff16815260200190815260200160002060000160009054906101000a900460ff16151514610a75576040517f08c379a00000000000000000000000000000000000000000000000000000000081526004018080602001828103825260158152602001807f596f75277265206e6f742072656769737465726564000000000000000000000081525060200191505060405180910390fd5b60001515600160003373ffffffffffffffffffffffffffffffffffffffff1673ffffffffffffffffffffffffffffffffffffffff16815260200190815260200160002060000160019054906101000a900460ff16151514610b3e576040517f08c379a00000000000000000000000000000000000000000000000000000000081526004018080602001828103825260168152602001807f596f75206861766520616c726561647920766f7465640000000000000000000081525060200191505060405180910390fd5b60038160ff1681548110610b4e57fe5b9060005260206000209060030201600201600081548092919060010191905055508060ff16600160003373ffffffffffffffffffffffffffffffffffffffff1673ffffffffffffffffffffffffffffffffffffffff1681526020019081526020016000206001018190555060018060003373ffffffffffffffffffffffffffffffffffffffff1673ffffffffffffffffffffffffffffffffffffffff16815260200190815260200160002060000160016101000a81548160ff0219169083151502179055507f4d99b957a2bc29a30ebd96a7be8e68fe50a3c701db28a91436490b7d53870ca43382604051808373ffffffffffffffffffffffffffffffffffffffff1681526020018260ff1681526020019250505060405180910390a150565b60606000600360055481548110610c8157fe5b906000526020600020906003020160010160405160200180807f5468652077696e6e6572206973203a200000000000000000000000000000000081525060100182805460018160011615610100020316600290048015610d185780601f10610cf6576101008083540402835291820191610d18565b820191906000526020600020905b815481529060010190602001808311610d04575b5050915050604051602081830303815290604052600360055481548110610d3b57fe5b906000526020600020906003020160020154915091509091565b610d5d6120eb565b73ffffffffffffffffffffffffffffffffffffffff1660008054906101000a900473ffffffffffffffffffffffffffffffffffffffff1673ffffffffffffffffffffffffffffffffffffffff1614610e1d576040517f08c379a00000000000000000000000000000000000000000000000000000000081526004018080602001828103825260208152602001807f4f776e61626c653a2063616c6c6572206973206e6f7420746865206f776e657281525060200191505060405180910390fd5b600073ffffffffffffffffffffffffffffffffffffffff1660008054906101000a900473ffffffffffffffffffffffffffffffffffffffff1673ffffffffffffffffffffffffffffffffffffffff167f8be0079c531659141344cd1fd0a4f28419497f9722a3daafe3b4186f6b6457e060405160405180910390a360008060006101000a81548173ffffffffffffffffffffffffffffffffffffffff021916908373ffffffffffffffffffffffffffffffffffffffff160217905550565b60008060009054906101000a900473ffffffffffffffffffffffffffffffffffffffff16905090565b6000610f0e6120eb565b73ffffffffffffffffffffffffffffffffffffffff1660008054906101000a900473ffffffffffffffffffffffffffffffffffffffff1673ffffffffffffffffffffffffffffffffffffffff1614610fce576040517f08c379a00000000000000000000000000000000000000000000000000000000081526004018080602001828103825260208152602001807f4f776e61626c653a2063616c6c6572206973206e6f7420746865206f776e657281525060200191505060405180910390fd5b60046005811115610fdb57fe5b600060149054906101000a900460ff166005811115610ff657fe5b1461104c576040517f08c379a00000000000000000000000000000000000000000000000000000000081526004018080602001828103825260398152602001806121b76039913960400191505060405180910390fd5b600080600090505b6003805490508110156110bd57816003828154811061106f57fe5b90600052602060002090600302016002015411156110b0576003818154811061109457fe5b9060005260206000209060030201600201549150806005819055505b8080600101915050611054565b506005600060146101000a81548160ff021916908360058111156110dd57fe5b02179055507f0a97a4ee45751e2abf3e4fc8946939630b11b371ea8ae39ccdc3056e98f5cc3f600460056040518083600581111561111757fe5b815260200182600581111561112857fe5b81526020019250505060405180910390a17f0e5e95ff8725ab3e7a4b6b59998a4c344c2aa8d1485f5e60cb7f337768e6134760405160405180910390a15090565b606060028054806020026020016040519081016040528092919081815260200182805480156111ed57602002820191906000526020600020905b8160009054906101000a900473ffffffffffffffffffffffffffffffffffffffff1673ffffffffffffffffffffffffffffffffffffffff16815260200190600101908083116111a3575b5050505050905090565b60016020528060005260406000206000915090508060000160009054906101000a900460ff16908060000160019054906101000a900460ff16908060010154905083565b60006112456120eb565b73ffffffffffffffffffffffffffffffffffffffff1660008054906101000a900473ffffffffffffffffffffffffffffffffffffffff1673ffffffffffffffffffffffffffffffffffffffff1614611305576040517f08c379a00000000000000000000000000000000000000000000000000000000081526004018080602001828103825260208152602001807f4f776e61626c653a2063616c6c6572206973206e6f7420746865206f776e657281525060200191505060405180910390fd5b600160008373ffffffffffffffffffffffffffffffffffffffff1673ffffffffffffffffffffffffffffffffffffffff16815260200190815260200160002060000160009054906101000a900460ff169050919050565b6113646120eb565b73ffffffffffffffffffffffffffffffffffffffff1660008054906101000a900473ffffffffffffffffffffffffffffffffffffffff1673ffffffffffffffffffffffffffffffffffffffff1614611424576040517f08c379a00000000000000000000000000000000000000000000000000000000081526004018080602001828103825260208152602001807f4f776e61626c653a2063616c6c6572206973206e6f7420746865206f776e657281525060200191505060405180910390fd5b6003600581111561143157fe5b600060149054906101000a900460ff16600581111561144c57fe5b146114bf576040517f08c379a00000000000000000000000000000000000000000000000000000000081526004018080602001828103825260118152602001807f4e6f2073657373696f6e20746f20656e6400000000000000000000000000000081525060200191505060405180910390fd5b6004600060146101000a81548160ff021916908360058111156114de57fe5b02179055507f0a97a4ee45751e2abf3e4fc8946939630b11b371ea8ae39ccdc3056e98f5cc3f600360046040518083600581111561151857fe5b815260200182600581111561152957fe5b81526020019250505060405180910390a17fc379d349a6301baf50fb2f98d829f4ae10b1cdb7c66f4e4d8117302df7b8cd4c60405160405180910390a1565b600060149054906101000a900460ff1681565b60055481565b6115896120eb565b73ffffffffffffffffffffffffffffffffffffffff1660008054906101000a900473ffffffffffffffffffffffffffffffffffffffff1673ffffffffffffffffffffffffffffffffffffffff1614611649576040517f08c379a00000000000000000000000000000000000000000000000000000000081526004018080602001828103825260208152602001807f4f776e61626c653a2063616c6c6572206973206e6f7420746865206f776e657281525060200191505060405180910390fd5b6001600581111561165657fe5b600060149054906101000a900460ff16600581111561167157fe5b146116e4576040517f08c379a00000000000000000000000000000000000000000000000000000000081526004018080602001828103825260118152602001807f4e6f2073657373696f6e20746f20656e6400000000000000000000000000000081525060200191505060405180910390fd5b6002600060146101000a81548160ff0219169083600581111561170357fe5b02179055507f0a97a4ee45751e2abf3e4fc8946939630b11b371ea8ae39ccdc3056e98f5cc3f600160026040518083600581111561173d57fe5b815260200182600581111561174e57fe5b81526020019250505060405180910390a17f240cb87b2e4df4c318e72bd714d45a9cad60249e883ff56b1fffd83a4595a8fa60405160405180910390a1565b6117956120eb565b73ffffffffffffffffffffffffffffffffffffffff1660008054906101000a900473ffffffffffffffffffffffffffffffffffffffff1673ffffffffffffffffffffffffffffffffffffffff1614611855576040517f08c379a00000000000000000000000000000000000000000000000000000000081526004018080602001828103825260208152602001807f4f776e61626c653a2063616c6c6572206973206e6f7420746865206f776e657281525060200191505060405180910390fd5b6000600581111561186257fe5b600060149054906101000a900460ff16600581111561187d57fe5b146118f0576040517f08c379a00000000000000000000000000000000000000000000000000000000081526004018080602001828103825260208152602001807f412073657373696f6e20697320616c726561647920696e2070726f677265737381525060200191505060405180910390fd5b6001600060146101000a81548160ff0219169083600581111561190f57fe5b02179055507f0a97a4ee45751e2abf3e4fc8946939630b11b371ea8ae39ccdc3056e98f5cc3f600060016040518083600581111561194957fe5b815260200182600581111561195a57fe5b81526020019250505060405180910390a17f344c25562921d075a298d34b6dd1fd00d36ff293974539dfd4a8c625d9f0064c60405160405180910390a1565b600281815481106119a657fe5b906000526020600020016000915054906101000a900473ffffffffffffffffffffffffffffffffffffffff1681565b6119dd6120eb565b73ffffffffffffffffffffffffffffffffffffffff1660008054906101000a900473ffffffffffffffffffffffffffffffffffffffff1673ffffffffffffffffffffffffffffffffffffffff1614611a9d576040517f08c379a00000000000000000000000000000000000000000000000000000000081526004018080602001828103825260208152602001807f4f776e61626c653a2063616c6c6572206973206e6f7420746865206f776e657281525060200191505060405180910390fd5b60026005811115611aaa57fe5b600060149054906101000a900460ff166005811115611ac557fe5b14611b1b576040517f08c379a00000000000000000000000000000000000000000000000000000000081526004018080602001828103825260348152602001806122536034913960400191505060405180910390fd5b6003600060146101000a81548160ff02191690836005811115611b3a57fe5b02179055507f0a97a4ee45751e2abf3e4fc8946939630b11b371ea8ae39ccdc3056e98f5cc3f6002600360405180836005811115611b7457fe5b8152602001826005811115611b8557fe5b81526020019250505060405180910390a17f240cb87b2e4df4c318e72bd714d45a9cad60249e883ff56b1fffd83a4595a8fa60405160405180910390a1565b611bcc6120eb565b73ffffffffffffffffffffffffffffffffffffffff1660008054906101000a900473ffffffffffffffffffffffffffffffffffffffff1673ffffffffffffffffffffffffffffffffffffffff1614611c8c576040517f08c379a00000000000000000000000000000000000000000000000000000000081526004018080602001828103825260208152602001807f4f776e61626c653a2063616c6c6572206973206e6f7420746865206f776e657281525060200191505060405180910390fd5b600073ffffffffffffffffffffffffffffffffffffffff168173ffffffffffffffffffffffffffffffffffffffff161415611d12576040517f08c379a00000000000000000000000000000000000000000000000000000000081526004018080602001828103825260268152602001806121916026913960400191505060405180910390fd5b8073ffffffffffffffffffffffffffffffffffffffff1660008054906101000a900473ffffffffffffffffffffffffffffffffffffffff1673ffffffffffffffffffffffffffffffffffffffff167f8be0079c531659141344cd1fd0a4f28419497f9722a3daafe3b4186f6b6457e060405160405180910390a3806000806101000a81548173ffffffffffffffffffffffffffffffffffffffff021916908373ffffffffffffffffffffffffffffffffffffffff16021790555050565b611dd76120eb565b73ffffffffffffffffffffffffffffffffffffffff1660008054906101000a900473ffffffffffffffffffffffffffffffffffffffff1673ffffffffffffffffffffffffffffffffffffffff1614611e97576040517f08c379a00000000000000000000000000000000000000000000000000000000081526004018080602001828103825260208152602001807f4f776e61626c653a2063616c6c6572206973206e6f7420746865206f776e657281525060200191505060405180910390fd5b60001515600160008373ffffffffffffffffffffffffffffffffffffffff1673ffffffffffffffffffffffffffffffffffffffff16815260200190815260200160002060000160009054906101000a900460ff16151514611f43576040517f08c379a00000000000000000000000000000000000000000000000000000000081526004018080602001828103825260228152602001806121f06022913960400191505060405180910390fd5b60006005811115611f5057fe5b600060149054906101000a900460ff166005811115611f6b57fe5b14611fde576040517f08c379a000000000000000000000000000000000000000000000000000000000815260040180806020018281038252601e8152602001807f546865207265676973746572696e6720706572696f64206973206f766572000081525060200191505060405180910390fd5b60018060008373ffffffffffffffffffffffffffffffffffffffff1673ffffffffffffffffffffffffffffffffffffffff16815260200190815260200160002060000160006101000a81548160ff0219169083151502179055506002819080600181540180825580915050600190039060005260206000200160009091909190916101000a81548173ffffffffffffffffffffffffffffffffffffffff021916908373ffffffffffffffffffffffffffffffffffffffff1602179055507fb6be2187d059cc2a55fe29e0e503b566e1e0f8c8780096e185429350acffd3dd81604051808273ffffffffffffffffffffffffffffffffffffffff16815260200191505060405180910390a150565b600033905090565b828054600181600116156101000203166002900490600052602060002090601f016020900481019282601f1061213457805160ff1916838001178555612162565b82800160010185558215612162579182015b82811115612161578251825591602001919060010190612146565b5b50905061216f9190612173565b5090565b5b8082111561218c576000816000905550600101612174565b509056fe4f776e61626c653a206e6577206f776e657220697320746865207a65726f2061646472657373506c6561736520656e6420766f74696e672073657373696f6e206265666f726520676574207468652077696e6e696e672070726f706f73616c54686973206164647265737320697320616c726561647920726567697374657265645468652070726f706f73616c20726567697374726174696f6e20706572696f642068617320656e646564206f7220686173206e6f742079657420737461727465644120766f74696e67206f722070726f706f73616c2073657373696f6e20697320616c726561647920696e2070726f677265737320566f746520706572696f642068617320656e646564206f7220686173206e6f74207965742073746172746564a2646970667358221220d5e030c4f339af9167b25d483c649406310539ec309d2a6c5bb9f8095d597c9964736f6c634300060c0033",
  "immutableReferences": {},
  "source": "\n// SPDX-License-Identifier: MIT\npragma solidity ^0.6.11;\n\nimport \"@openzeppelin/contracts/access/Ownable.sol\";\n\ncontract Voting is Ownable{\n    \n    enum WorkflowStatus {\n        RegisteringVoters,\n        ProposalsRegistrationStarted,\n        ProposalsRegistrationEnded,\n        VotingSessionStarted,\n        VotingSessionEnded,\n        VotesTallied\n    }\n    \n    struct Voter {\n        bool isRegistered;\n        bool hasVoted;\n        uint votedProposalId;\n    }\n\n    struct Proposal {\n        uint id;\n        string description;\n        uint voteCount;\n    }\n    \n    \n    WorkflowStatus public currState;\n    mapping (address  => Voter) public voters;\n    address[] public addresses;\n    Proposal[] public proposals;\n    uint public proposalId;\n    uint public winningProposalId;\n    \n    \n    event VoterRegistered(address voterAddress);\n    event ProposalsRegistrationStarted();\n    event ProposalsRegistrationEnded();\n    event ProposalRegistered(uint proposalId);\n    event VotingSessionStarted();\n    event VotingSessionEnded();\n    event Voted (address voter, uint proposalId);\n    event VotesTallied();\n    event WorkflowStatusChange(WorkflowStatus previousStatus, WorkflowStatus newStatus);\n    \n    function addVoter(address _address) external onlyOwner {\n        require(voters[_address].isRegistered == false, \"This address is already registered\");\n        require(currState == WorkflowStatus.RegisteringVoters, \"The registering period is over\");\n        voters[_address].isRegistered = true;\n        addresses.push(_address);\n        emit VoterRegistered (_address);\n    }\n\n    function isVoter(address _address) public view onlyOwner returns(bool) {\n        return voters[_address].isRegistered;\n    }\n    \n    function startProposalsSession() external onlyOwner {\n        require(currState == WorkflowStatus.RegisteringVoters, \"A session is already in progress\");\n        currState = WorkflowStatus.ProposalsRegistrationStarted;\n        emit WorkflowStatusChange (WorkflowStatus.RegisteringVoters, WorkflowStatus.ProposalsRegistrationStarted);\n        emit ProposalsRegistrationStarted ();\n    }\n    \n    function addProposal(string memory _description ) external {\n        require(currState == WorkflowStatus.ProposalsRegistrationStarted, \"The proposal registration period has ended or has not yet started\");\n        require(voters[msg.sender].isRegistered == true, \"You're not registered\");\n        proposals.push(Proposal({\n                id: proposalId,\n                description: _description,\n                voteCount: 0\n        }));\n        proposalId++;\n        emit ProposalRegistered(proposalId);\n    }\n    \n    function endProposalSession() external onlyOwner {\n                require(currState == WorkflowStatus.ProposalsRegistrationStarted, \"No session to end\");\n                currState = WorkflowStatus.ProposalsRegistrationEnded;\n                emit WorkflowStatusChange (WorkflowStatus.ProposalsRegistrationStarted, WorkflowStatus.ProposalsRegistrationEnded);\n                emit ProposalsRegistrationEnded ();\n    }\n    \n    function startVotingSession() external onlyOwner {\n        require(currState == WorkflowStatus.ProposalsRegistrationEnded, \"A voting or proposal session is already in progress \");\n        currState = WorkflowStatus.VotingSessionStarted;\n        emit WorkflowStatusChange (WorkflowStatus.ProposalsRegistrationEnded, WorkflowStatus.VotingSessionStarted);\n        emit ProposalsRegistrationEnded ();\n        \n    }\n    \n    function addVote(uint8 _proposalId) external {\n        require(currState == WorkflowStatus.VotingSessionStarted, \"Vote period has ended or has not yet started\");\n        require(voters[msg.sender].isRegistered == true, \"You're not registered\");\n        require(voters[msg.sender].hasVoted == false, \"You have already voted\");\n        proposals[_proposalId].voteCount++;\n        voters[msg.sender].votedProposalId = _proposalId;\n        voters[msg.sender].hasVoted = true;\n        emit Voted (msg.sender, _proposalId);\n    }\n    \n    function endVotingSession() external onlyOwner{\n        require(currState == WorkflowStatus.VotingSessionStarted, \"No session to end\");\n        currState = WorkflowStatus.VotingSessionEnded;\n        emit WorkflowStatusChange (WorkflowStatus.VotingSessionStarted, WorkflowStatus.VotingSessionEnded);\n        emit VotingSessionEnded ();\n    }\n    \n    function getTheWinningProposal() external onlyOwner returns(uint) {\n        require(currState == WorkflowStatus.VotingSessionEnded, \"Please end voting session before get the winning proposal\");\n         uint winningVoteCount;\n         for (uint id = 0; id < proposals.length; id++) {\n            if (proposals[id].voteCount > winningVoteCount) {\n                winningVoteCount = proposals[id].voteCount;\n                winningProposalId = id;\n            }\n        }\n        currState = WorkflowStatus.VotesTallied;\n        emit WorkflowStatusChange (WorkflowStatus.VotingSessionEnded, WorkflowStatus.VotesTallied);\n        emit VotesTallied();\n    }\n    \n    function showWinnerProposal() external view returns(string memory,uint) {\n        return (string(abi.encodePacked(\"The winner is : \",proposals[winningProposalId].description)), proposals[winningProposalId].voteCount);\n    }\n\n    function getAddresses() public view returns(address[] memory){\n       return addresses;\n   }\n}",
  "sourcePath": "/mnt/c/Users/damie/Documents/truffle-voting-model/React-modele/contracts/Voting.sol",
  "compiler": {
    "name": "solc",
    "version": "0.6.12+commit.27d51765.Emscripten.clang"
  },
  "schemaVersion": "3.3.2",
  "updatedAt": "2020-11-24T15:48:15.518Z",
  "networkType": "ethereum",
  "devdoc": {
    "kind": "dev",
    "methods": {
      "owner()": {
        "details": "Returns the address of the current owner."
      },
      "renounceOwnership()": {
        "details": "Leaves the contract without owner. It will not be possible to call `onlyOwner` functions anymore. Can only be called by the current owner. NOTE: Renouncing ownership will leave the contract without an owner, thereby removing any functionality that is only available to the owner."
      },
      "transferOwnership(address)": {
        "details": "Transfers ownership of the contract to a new account (`newOwner`). Can only be called by the current owner."
      }
    },
    "version": 1
  },
  "userdoc": {
    "kind": "user",
    "methods": {},
    "version": 1
  }
}